{
  "_format": "hh-sol-artifact-1",
  "contractName": "KYC",
  "sourceName": "contracts/KYC.sol",
  "abi": [
    {
      "inputs": [],
      "stateMutability": "nonpayable",
      "type": "constructor"
    },
    {
      "inputs": [
        {
          "internalType": "string",
          "name": "_bankName",
          "type": "string"
        },
        {
          "internalType": "address",
          "name": "_bankAddress",
          "type": "address"
        },
        {
          "internalType": "string",
          "name": "_bankRegistration",
          "type": "string"
        }
      ],
      "name": "AddBank",
      "outputs": [],
      "stateMutability": "nonpayable",
      "type": "function"
    },
    {
      "inputs": [
        {
          "internalType": "string",
          "name": "_userName",
          "type": "string"
        }
      ],
      "name": "DownVoteByBank",
      "outputs": [],
      "stateMutability": "nonpayable",
      "type": "function"
    },
    {
      "inputs": [
        {
          "internalType": "address",
          "name": "_bankAddress",
          "type": "address"
        },
        {
          "internalType": "bool",
          "name": "_canBankvote",
          "type": "bool"
        }
      ],
      "name": "ModifyBankAccess",
      "outputs": [],
      "stateMutability": "nonpayable",
      "type": "function"
    },
    {
      "inputs": [
        {
          "internalType": "string",
          "name": "_userName",
          "type": "string"
        },
        {
          "internalType": "string",
          "name": "_customerData",
          "type": "string"
        }
      ],
      "name": "addCustomer",
      "outputs": [],
      "stateMutability": "nonpayable",
      "type": "function"
    },
    {
      "inputs": [
        {
          "internalType": "string",
          "name": "_userName",
          "type": "string"
        },
        {
          "internalType": "string",
          "name": "_customerData",
          "type": "string"
        }
      ],
      "name": "addResquest",
      "outputs": [],
      "stateMutability": "nonpayable",
      "type": "function"
    },
    {
      "inputs": [
        {
          "internalType": "address",
          "name": "_bankAddress",
          "type": "address"
        }
      ],
      "name": "getBankCompliants",
      "outputs": [
        {
          "internalType": "uint256",
          "name": "",
          "type": "uint256"
        }
      ],
      "stateMutability": "view",
      "type": "function"
    },
    {
      "inputs": [
        {
          "internalType": "address",
          "name": "_bankAddress",
          "type": "address"
        }
      ],
      "name": "getBankDetails",
      "outputs": [
        {
          "components": [
            {
              "internalType": "string",
              "name": "name",
              "type": "string"
            },
            {
              "internalType": "address",
              "name": "ethAddress",
              "type": "address"
            },
            {
              "internalType": "uint256",
              "name": "complaintReport",
              "type": "uint256"
            },
            {
              "internalType": "uint256",
              "name": "kycCount",
              "type": "uint256"
            },
            {
              "internalType": "bool",
              "name": "isAllowedTovote",
              "type": "bool"
            },
            {
              "internalType": "string",
              "name": "regNo",
              "type": "string"
            }
          ],
          "internalType": "struct KYC.Bank",
          "name": "",
          "type": "tuple"
        }
      ],
      "stateMutability": "view",
      "type": "function"
    },
    {
      "inputs": [
        {
          "internalType": "string",
          "name": "_userName",
          "type": "string"
        },
        {
          "internalType": "string",
          "name": "_customerData",
          "type": "string"
        }
      ],
      "name": "modifyCustomer",
      "outputs": [],
      "stateMutability": "nonpayable",
      "type": "function"
    },
    {
      "inputs": [
        {
          "internalType": "address",
          "name": "_bankAddress",
          "type": "address"
        }
      ],
      "name": "removeBank",
      "outputs": [],
      "stateMutability": "nonpayable",
      "type": "function"
    },
    {
      "inputs": [
        {
          "internalType": "string",
          "name": "_userName",
          "type": "string"
        }
      ],
      "name": "removeDownvoteByBank",
      "outputs": [],
      "stateMutability": "nonpayable",
      "type": "function"
    },
    {
      "inputs": [
        {
          "internalType": "string",
          "name": "_userName",
          "type": "string"
        }
      ],
      "name": "removeRequest",
      "outputs": [],
      "stateMutability": "nonpayable",
      "type": "function"
    },
    {
      "inputs": [
        {
          "internalType": "string",
          "name": "_userName",
          "type": "string"
        }
      ],
      "name": "removeUpvoteByBank",
      "outputs": [],
      "stateMutability": "nonpayable",
      "type": "function"
    },
    {
      "inputs": [
        {
          "internalType": "address",
          "name": "_bankAddress",
          "type": "address"
        }
      ],
      "name": "reportBank",
      "outputs": [],
      "stateMutability": "nonpayable",
      "type": "function"
    },
    {
      "inputs": [
        {
          "internalType": "string",
          "name": "_userName",
          "type": "string"
        }
      ],
      "name": "upVoteByBank",
      "outputs": [],
      "stateMutability": "nonpayable",
      "type": "function"
    },
    {
      "inputs": [
        {
          "internalType": "string",
          "name": "_userName",
          "type": "string"
        }
      ],
      "name": "viewCustomer",
      "outputs": [
        {
          "components": [
            {
              "internalType": "string",
              "name": "username",
              "type": "string"
            },
            {
              "internalType": "string",
              "name": "customerData",
              "type": "string"
            },
            {
              "internalType": "bool",
              "name": "kycStaus",
              "type": "bool"
            },
            {
              "internalType": "uint256",
              "name": "downVotesOfCustomer",
              "type": "uint256"
            },
            {
              "internalType": "uint256",
              "name": "upVotesOfCustomer",
              "type": "uint256"
            },
            {
              "internalType": "address",
              "name": "bank",
              "type": "address"
            }
          ],
          "internalType": "struct KYC.Customer",
          "name": "",
          "type": "tuple"
        }
      ],
      "stateMutability": "view",
      "type": "function"
    }
  ],
  "bytecode": "0x608060405234801561001057600080fd5b50336000806101000a81548173ffffffffffffffffffffffffffffffffffffffff021916908373ffffffffffffffffffffffffffffffffffffffff1602179055506142f4806100606000396000f3fe608060405234801561001057600080fd5b50600436106100f55760003560e01c8063705b10ea11610097578063a5a4980011610066578063a5a498001461026a578063c7e157ea14610286578063e7d71563146102a2578063f72860ca146102be576100f5565b8063705b10ea146101e65780637eca9198146102025780639649650c14610232578063995768e61461024e576100f5565b806315101e02116100d357806315101e02146101625780631b112085146101925780633190abc0146101ae5780636cba00e6146101ca576100f5565b8063066eee03146100fa578063107925bb1461011657806313881f6714610146575b600080fd5b610114600480360381019061010f9190613066565b6102da565b005b610130600480360381019061012b91906130f1565b610860565b60405161013d9190613295565b60405180910390f35b610160600480360381019061015b91906132e3565b610ad4565b005b61017c60048036038101906101779190613323565b610c90565b60405161018991906133e0565b60405180910390f35b6101ac60048036038101906101a791906130f1565b610f25565b005b6101c860048036038101906101c39190613402565b6112e3565b005b6101e460048036038101906101df91906130f1565b6114f6565b005b61020060048036038101906101fb91906130f1565b6116c7565b005b61021c60048036038101906102179190613323565b611a85565b6040516102299190613489565b60405180910390f35b61024c60048036038101906102479190613323565b611c34565b005b61026860048036038101906102639190613402565b611e5a565b005b610284600480360381019061027f9190613323565b611fda565b005b6102a0600480360381019061029b91906130f1565b612264565b005b6102bc60048036038101906102b791906130f1565b6126c1565b005b6102d860048036038101906102d39190613402565b612b1e565b005b60008054906101000a900473ffffffffffffffffffffffffffffffffffffffff1673ffffffffffffffffffffffffffffffffffffffff163373ffffffffffffffffffffffffffffffffffffffff1614610368576040517f08c379a000000000000000000000000000000000000000000000000000000000815260040161035f90613527565b60405180910390fd5b60001515600760008473ffffffffffffffffffffffffffffffffffffffff1673ffffffffffffffffffffffffffffffffffffffff16815260200190815260200160002060009054906101000a900460ff161515146103fb576040517f08c379a00000000000000000000000000000000000000000000000000000000081526004016103f2906135b9565b60405180910390fd5b60001515600860008473ffffffffffffffffffffffffffffffffffffffff1673ffffffffffffffffffffffffffffffffffffffff16815260200190815260200160002060009054906101000a900460ff1615151461048e576040517f08c379a00000000000000000000000000000000000000000000000000000000081526004016104859061364b565b60405180910390fd5b60001515600960008473ffffffffffffffffffffffffffffffffffffffff1673ffffffffffffffffffffffffffffffffffffffff16815260200190815260200160002060009054906101000a900460ff16151514610521576040517f08c379a0000000000000000000000000000000000000000000000000000000008152600401610518906136dd565b60405180910390fd5b82600360008473ffffffffffffffffffffffffffffffffffffffff1673ffffffffffffffffffffffffffffffffffffffff1681526020019081526020016000206000019080519060200190610577929190612d2f565b5081600360008473ffffffffffffffffffffffffffffffffffffffff1673ffffffffffffffffffffffffffffffffffffffff16815260200190815260200160002060010160006101000a81548173ffffffffffffffffffffffffffffffffffffffff021916908373ffffffffffffffffffffffffffffffffffffffff1602179055506000600360008473ffffffffffffffffffffffffffffffffffffffff1673ffffffffffffffffffffffffffffffffffffffff168152602001908152602001600020600201819055506000600360008473ffffffffffffffffffffffffffffffffffffffff1673ffffffffffffffffffffffffffffffffffffffff168152602001908152602001600020600301819055506001600360008473ffffffffffffffffffffffffffffffffffffffff1673ffffffffffffffffffffffffffffffffffffffff16815260200190815260200160002060040160006101000a81548160ff02191690831515021790555080600360008473ffffffffffffffffffffffffffffffffffffffff1673ffffffffffffffffffffffffffffffffffffffff168152602001908152602001600020600501908051906020019061073a929190612d2f565b506001600760008473ffffffffffffffffffffffffffffffffffffffff1673ffffffffffffffffffffffffffffffffffffffff16815260200190815260200160002060006101000a81548160ff0219169083151502179055506001600860008473ffffffffffffffffffffffffffffffffffffffff1673ffffffffffffffffffffffffffffffffffffffff16815260200190815260200160002060006101000a81548160ff0219169083151502179055506001600960008473ffffffffffffffffffffffffffffffffffffffff1673ffffffffffffffffffffffffffffffffffffffff16815260200190815260200160002060006101000a81548160ff021916908315150217905550600160008154809291906108569061372c565b9190505550505050565b610868612db5565b60011515600760003373ffffffffffffffffffffffffffffffffffffffff1673ffffffffffffffffffffffffffffffffffffffff16815260200190815260200160002060009054906101000a900460ff161515146108fb576040517f08c379a00000000000000000000000000000000000000000000000000000000081526004016108f29061380d565b60405180910390fd5b60028260405161090b9190613869565b90815260200160405180910390206040518060c0016040529081600082018054610934906138af565b80601f0160208091040260200160405190810160405280929190818152602001828054610960906138af565b80156109ad5780601f10610982576101008083540402835291602001916109ad565b820191906000526020600020905b81548152906001019060200180831161099057829003601f168201915b505050505081526020016001820180546109c6906138af565b80601f01602080910402602001604051908101604052809291908181526020018280546109f2906138af565b8015610a3f5780601f10610a1457610100808354040283529160200191610a3f565b820191906000526020600020905b815481529060010190602001808311610a2257829003601f168201915b505050505081526020016002820160009054906101000a900460ff1615151515815260200160038201548152602001600482015481526020016005820160009054906101000a900473ffffffffffffffffffffffffffffffffffffffff1673ffffffffffffffffffffffffffffffffffffffff1673ffffffffffffffffffffffffffffffffffffffff16815250509050919050565b60008054906101000a900473ffffffffffffffffffffffffffffffffffffffff1673ffffffffffffffffffffffffffffffffffffffff163373ffffffffffffffffffffffffffffffffffffffff1614610b62576040517f08c379a0000000000000000000000000000000000000000000000000000000008152600401610b5990613527565b60405180910390fd5b8173ffffffffffffffffffffffffffffffffffffffff16600360008473ffffffffffffffffffffffffffffffffffffffff1673ffffffffffffffffffffffffffffffffffffffff16815260200190815260200160002060010160009054906101000a900473ffffffffffffffffffffffffffffffffffffffff1673ffffffffffffffffffffffffffffffffffffffff1614610c32576040517f08c379a0000000000000000000000000000000000000000000000000000000008152600401610c299061392d565b60405180910390fd5b80600360008473ffffffffffffffffffffffffffffffffffffffff1673ffffffffffffffffffffffffffffffffffffffff16815260200190815260200160002060040160006101000a81548160ff0219169083151502179055505050565b610c98612e03565b60011515600760003373ffffffffffffffffffffffffffffffffffffffff1673ffffffffffffffffffffffffffffffffffffffff16815260200190815260200160002060009054906101000a900460ff16151514610d2b576040517f08c379a0000000000000000000000000000000000000000000000000000000008152600401610d229061380d565b60405180910390fd5b600360008373ffffffffffffffffffffffffffffffffffffffff1673ffffffffffffffffffffffffffffffffffffffff1681526020019081526020016000206040518060c0016040529081600082018054610d85906138af565b80601f0160208091040260200160405190810160405280929190818152602001828054610db1906138af565b8015610dfe5780601f10610dd357610100808354040283529160200191610dfe565b820191906000526020600020905b815481529060010190602001808311610de157829003601f168201915b505050505081526020016001820160009054906101000a900473ffffffffffffffffffffffffffffffffffffffff1673ffffffffffffffffffffffffffffffffffffffff1673ffffffffffffffffffffffffffffffffffffffff16815260200160028201548152602001600382015481526020016004820160009054906101000a900460ff16151515158152602001600582018054610e9c906138af565b80601f0160208091040260200160405190810160405280929190818152602001828054610ec8906138af565b8015610f155780601f10610eea57610100808354040283529160200191610f15565b820191906000526020600020905b815481529060010190602001808311610ef857829003601f168201915b5050505050815250509050919050565b60011515600760003373ffffffffffffffffffffffffffffffffffffffff1673ffffffffffffffffffffffffffffffffffffffff16815260200190815260200160002060009054906101000a900460ff16151514610fb8576040517f08c379a0000000000000000000000000000000000000000000000000000000008152600401610faf9061380d565b60405180910390fd5b60011515600360003373ffffffffffffffffffffffffffffffffffffffff1673ffffffffffffffffffffffffffffffffffffffff16815260200190815260200160002060040160009054906101000a900460ff1615151461104e576040517f08c379a0000000000000000000000000000000000000000000000000000000008152600401611045906139bf565b60405180910390fd5b60028160405161105e9190613869565b908152602001604051809103902060000160405160200161107f9190613a73565b60405160208183030381529060405280519060200120816040516020016110a69190613869565b60405160208183030381529060405280519060200120146110fc576040517f08c379a00000000000000000000000000000000000000000000000000000000081526004016110f390613afc565b60405180910390fd5b60048160405161110c9190613869565b908152602001604051809103902060000160405160200161112d9190613a73565b60405160208183030381529060405280519060200120816040516020016111549190613869565b60405160208183030381529060405280519060200120146111aa576040517f08c379a00000000000000000000000000000000000000000000000000000000081526004016111a190613b8e565b60405180910390fd5b60016005826040516111bc9190613869565b908152602001604051809103902060003373ffffffffffffffffffffffffffffffffffffffff1673ffffffffffffffffffffffffffffffffffffffff1681526020019081526020016000205414611248576040517f08c379a000000000000000000000000000000000000000000000000000000000815260040161123f90613c20565b60405180910390fd5b6002816040516112589190613869565b9081526020016040518091039020600401600081548092919061127a90613c40565b919050555060006005826040516112919190613869565b908152602001604051809103902060003373ffffffffffffffffffffffffffffffffffffffff1673ffffffffffffffffffffffffffffffffffffffff1681526020019081526020016000208190555050565b60011515600760003373ffffffffffffffffffffffffffffffffffffffff1673ffffffffffffffffffffffffffffffffffffffff16815260200190815260200160002060009054906101000a900460ff16151514611376576040517f08c379a000000000000000000000000000000000000000000000000000000000815260040161136d9061380d565b60405180910390fd5b3373ffffffffffffffffffffffffffffffffffffffff1660028360405161139d9190613869565b908152602001604051809103902060050160009054906101000a900473ffffffffffffffffffffffffffffffffffffffff1673ffffffffffffffffffffffffffffffffffffffff161415611426576040517f08c379a000000000000000000000000000000000000000000000000000000000815260040161141d90613cdc565b60405180910390fd5b816002836040516114379190613869565b9081526020016040518091039020600001908051906020019061145b929190612d2f565b508060028360405161146d9190613869565b90815260200160405180910390206001019080519060200190611491929190612d2f565b50336002836040516114a39190613869565b908152602001604051809103902060050160006101000a81548173ffffffffffffffffffffffffffffffffffffffff021916908373ffffffffffffffffffffffffffffffffffffffff1602179055505050565b3373ffffffffffffffffffffffffffffffffffffffff1660048260405161151d9190613869565b908152602001604051809103902060010160009054906101000a900473ffffffffffffffffffffffffffffffffffffffff1673ffffffffffffffffffffffffffffffffffffffff16146115a5576040517f08c379a000000000000000000000000000000000000000000000000000000000815260040161159c90613d6e565b60405180910390fd5b6002816040516115b59190613869565b90815260200160405180910390206000016040516020016115d69190613a73565b60405160208183030381529060405280519060200120816040516020016115fd9190613869565b6040516020818303038152906040528051906020012014611653576040517f08c379a000000000000000000000000000000000000000000000000000000000815260040161164a90613dda565b60405180910390fd5b6004816040516116639190613869565b9081526020016040518091039020600080820160006116829190612e51565b6001820160006101000a81549073ffffffffffffffffffffffffffffffffffffffff02191690556002820160006116b99190612e51565b50506116c4816114f6565b50565b60011515600760003373ffffffffffffffffffffffffffffffffffffffff1673ffffffffffffffffffffffffffffffffffffffff16815260200190815260200160002060009054906101000a900460ff1615151461175a576040517f08c379a00000000000000000000000000000000000000000000000000000000081526004016117519061380d565b60405180910390fd5b60011515600360003373ffffffffffffffffffffffffffffffffffffffff1673ffffffffffffffffffffffffffffffffffffffff16815260200190815260200160002060040160009054906101000a900460ff161515146117f0576040517f08c379a00000000000000000000000000000000000000000000000000000000081526004016117e7906139bf565b60405180910390fd5b6002816040516118009190613869565b90815260200160405180910390206000016040516020016118219190613a73565b60405160208183030381529060405280519060200120816040516020016118489190613869565b604051602081830303815290604052805190602001201461189e576040517f08c379a000000000000000000000000000000000000000000000000000000000815260040161189590613afc565b60405180910390fd5b6004816040516118ae9190613869565b90815260200160405180910390206000016040516020016118cf9190613a73565b60405160208183030381529060405280519060200120816040516020016118f69190613869565b604051602081830303815290604052805190602001201461194c576040517f08c379a000000000000000000000000000000000000000000000000000000000815260040161194390613b8e565b60405180910390fd5b600160068260405161195e9190613869565b908152602001604051809103902060003373ffffffffffffffffffffffffffffffffffffffff1673ffffffffffffffffffffffffffffffffffffffff16815260200190815260200160002054146119ea576040517f08c379a00000000000000000000000000000000000000000000000000000000081526004016119e190613c20565b60405180910390fd5b6002816040516119fa9190613869565b90815260200160405180910390206003016000815480929190611a1c90613c40565b91905055506000600682604051611a339190613869565b908152602001604051809103902060003373ffffffffffffffffffffffffffffffffffffffff1673ffffffffffffffffffffffffffffffffffffffff1681526020019081526020016000208190555050565b600060011515600760003373ffffffffffffffffffffffffffffffffffffffff1673ffffffffffffffffffffffffffffffffffffffff16815260200190815260200160002060009054906101000a900460ff16151514611b1a576040517f08c379a0000000000000000000000000000000000000000000000000000000008152600401611b119061380d565b60405180910390fd5b8173ffffffffffffffffffffffffffffffffffffffff16600360008473ffffffffffffffffffffffffffffffffffffffff1673ffffffffffffffffffffffffffffffffffffffff16815260200190815260200160002060010160009054906101000a900473ffffffffffffffffffffffffffffffffffffffff1673ffffffffffffffffffffffffffffffffffffffff1614611bea576040517f08c379a0000000000000000000000000000000000000000000000000000000008152600401611be190613e46565b60405180910390fd5b600360008373ffffffffffffffffffffffffffffffffffffffff1673ffffffffffffffffffffffffffffffffffffffff168152602001908152602001600020600201549050919050565b60008054906101000a900473ffffffffffffffffffffffffffffffffffffffff1673ffffffffffffffffffffffffffffffffffffffff163373ffffffffffffffffffffffffffffffffffffffff1614611cc2576040517f08c379a0000000000000000000000000000000000000000000000000000000008152600401611cb990613527565b60405180910390fd5b8073ffffffffffffffffffffffffffffffffffffffff16600360008373ffffffffffffffffffffffffffffffffffffffff1673ffffffffffffffffffffffffffffffffffffffff16815260200190815260200160002060010160009054906101000a900473ffffffffffffffffffffffffffffffffffffffff1673ffffffffffffffffffffffffffffffffffffffff1614611d92576040517f08c379a0000000000000000000000000000000000000000000000000000000008152600401611d899061392d565b60405180910390fd5b600360008273ffffffffffffffffffffffffffffffffffffffff1673ffffffffffffffffffffffffffffffffffffffff16815260200190815260200160002060008082016000611de29190612e51565b6001820160006101000a81549073ffffffffffffffffffffffffffffffffffffffff0219169055600282016000905560038201600090556004820160006101000a81549060ff0219169055600582016000611e3d9190612e51565b505060016000815480929190611e5290613c40565b919050555050565b3373ffffffffffffffffffffffffffffffffffffffff16600483604051611e819190613869565b908152602001604051809103902060010160009054906101000a900473ffffffffffffffffffffffffffffffffffffffff1673ffffffffffffffffffffffffffffffffffffffff161415611f0a576040517f08c379a0000000000000000000000000000000000000000000000000000000008152600401611f0190613ed8565b60405180910390fd5b81600483604051611f1b9190613869565b90815260200160405180910390206000019080519060200190611f3f929190612d2f565b5033600483604051611f519190613869565b908152602001604051809103902060010160006101000a81548173ffffffffffffffffffffffffffffffffffffffff021916908373ffffffffffffffffffffffffffffffffffffffff16021790555080600483604051611fb19190613869565b90815260200160405180910390206002019080519060200190611fd5929190612d2f565b505050565b60011515600760003373ffffffffffffffffffffffffffffffffffffffff1673ffffffffffffffffffffffffffffffffffffffff16815260200190815260200160002060009054906101000a900460ff1615151461206d576040517f08c379a00000000000000000000000000000000000000000000000000000000081526004016120649061380d565b60405180910390fd5b8073ffffffffffffffffffffffffffffffffffffffff16600360008373ffffffffffffffffffffffffffffffffffffffff1673ffffffffffffffffffffffffffffffffffffffff16815260200190815260200160002060010160009054906101000a900473ffffffffffffffffffffffffffffffffffffffff1673ffffffffffffffffffffffffffffffffffffffff161461213d576040517f08c379a000000000000000000000000000000000000000000000000000000000815260040161213490613f44565b60405180910390fd5b600360008273ffffffffffffffffffffffffffffffffffffffff1673ffffffffffffffffffffffffffffffffffffffff16815260200190815260200160002060020160008154809291906121909061372c565b919050555060006064600360008473ffffffffffffffffffffffffffffffffffffffff1673ffffffffffffffffffffffffffffffffffffffff168152602001908152602001600020600201546121e69190613f64565b9050600060015460216121f99190613f64565b90508082111561225f576000600360008573ffffffffffffffffffffffffffffffffffffffff1673ffffffffffffffffffffffffffffffffffffffff16815260200190815260200160002060040160006101000a81548160ff0219169083151502179055505b505050565b60011515600760003373ffffffffffffffffffffffffffffffffffffffff1673ffffffffffffffffffffffffffffffffffffffff16815260200190815260200160002060009054906101000a900460ff161515146122f7576040517f08c379a00000000000000000000000000000000000000000000000000000000081526004016122ee9061380d565b60405180910390fd5b60011515600360003373ffffffffffffffffffffffffffffffffffffffff1673ffffffffffffffffffffffffffffffffffffffff16815260200190815260200160002060040160009054906101000a900460ff1615151461238d576040517f08c379a0000000000000000000000000000000000000000000000000000000008152600401612384906139bf565b60405180910390fd5b60028160405161239d9190613869565b90815260200160405180910390206000016040516020016123be9190613a73565b60405160208183030381529060405280519060200120816040516020016123e59190613869565b604051602081830303815290604052805190602001201461243b576040517f08c379a000000000000000000000000000000000000000000000000000000000815260040161243290613afc565b60405180910390fd5b60048160405161244b9190613869565b908152602001604051809103902060000160405160200161246c9190613a73565b60405160208183030381529060405280519060200120816040516020016124939190613869565b60405160208183030381529060405280519060200120146124e9576040517f08c379a00000000000000000000000000000000000000000000000000000000081526004016124e090613b8e565b60405180910390fd5b60006006826040516124fb9190613869565b908152602001604051809103902060003373ffffffffffffffffffffffffffffffffffffffff1673ffffffffffffffffffffffffffffffffffffffff1681526020019081526020016000205414612587576040517f08c379a000000000000000000000000000000000000000000000000000000000815260040161257e9061400a565b60405180910390fd5b60016005826040516125999190613869565b908152602001604051809103902060003373ffffffffffffffffffffffffffffffffffffffff1673ffffffffffffffffffffffffffffffffffffffff168152602001908152602001600020541415612626576040517f08c379a000000000000000000000000000000000000000000000000000000000815260040161261d906140c2565b60405180910390fd5b6002816040516126369190613869565b908152602001604051809103902060030160008154809291906126589061372c565b9190505550600160068260405161266f9190613869565b908152602001604051809103902060003373ffffffffffffffffffffffffffffffffffffffff1673ffffffffffffffffffffffffffffffffffffffff1681526020019081526020016000208190555050565b60011515600760003373ffffffffffffffffffffffffffffffffffffffff1673ffffffffffffffffffffffffffffffffffffffff16815260200190815260200160002060009054906101000a900460ff16151514612754576040517f08c379a000000000000000000000000000000000000000000000000000000000815260040161274b9061380d565b60405180910390fd5b60011515600360003373ffffffffffffffffffffffffffffffffffffffff1673ffffffffffffffffffffffffffffffffffffffff16815260200190815260200160002060040160009054906101000a900460ff161515146127ea576040517f08c379a00000000000000000000000000000000000000000000000000000000081526004016127e1906139bf565b60405180910390fd5b6002816040516127fa9190613869565b908152602001604051809103902060000160405160200161281b9190613a73565b60405160208183030381529060405280519060200120816040516020016128429190613869565b6040516020818303038152906040528051906020012014612898576040517f08c379a000000000000000000000000000000000000000000000000000000000815260040161288f90613afc565b60405180910390fd5b6004816040516128a89190613869565b90815260200160405180910390206000016040516020016128c99190613a73565b60405160208183030381529060405280519060200120816040516020016128f09190613869565b6040516020818303038152906040528051906020012014612946576040517f08c379a000000000000000000000000000000000000000000000000000000000815260040161293d90613b8e565b60405180910390fd5b60006005826040516129589190613869565b908152602001604051809103902060003373ffffffffffffffffffffffffffffffffffffffff1673ffffffffffffffffffffffffffffffffffffffff16815260200190815260200160002054146129e4576040517f08c379a00000000000000000000000000000000000000000000000000000000081526004016129db90614154565b60405180910390fd5b60016006826040516129f69190613869565b908152602001604051809103902060003373ffffffffffffffffffffffffffffffffffffffff1673ffffffffffffffffffffffffffffffffffffffff168152602001908152602001600020541415612a83576040517f08c379a0000000000000000000000000000000000000000000000000000000008152600401612a7a9061420c565b60405180910390fd5b600281604051612a939190613869565b90815260200160405180910390206004016000815480929190612ab59061372c565b91905055506001600582604051612acc9190613869565b908152602001604051809103902060003373ffffffffffffffffffffffffffffffffffffffff1673ffffffffffffffffffffffffffffffffffffffff1681526020019081526020016000208190555050565b60011515600760003373ffffffffffffffffffffffffffffffffffffffff1673ffffffffffffffffffffffffffffffffffffffff16815260200190815260200160002060009054906101000a900460ff16151514612bb1576040517f08c379a0000000000000000000000000000000000000000000000000000000008152600401612ba89061380d565b60405180910390fd5b600282604051612bc19190613869565b9081526020016040518091039020600001604051602001612be29190613a73565b6040516020818303038152906040528051906020012082604051602001612c099190613869565b6040516020818303038152906040528051906020012014612c5f576040517f08c379a0000000000000000000000000000000000000000000000000000000008152600401612c569061429e565b60405180910390fd5b81600283604051612c709190613869565b90815260200160405180910390206000019080519060200190612c94929190612d2f565b5080600283604051612ca69190613869565b90815260200160405180910390206001019080519060200190612cca929190612d2f565b5033600283604051612cdc9190613869565b908152602001604051809103902060050160006101000a81548173ffffffffffffffffffffffffffffffffffffffff021916908373ffffffffffffffffffffffffffffffffffffffff1602179055505050565b828054612d3b906138af565b90600052602060002090601f016020900481019282612d5d5760008555612da4565b82601f10612d7657805160ff1916838001178555612da4565b82800160010185558215612da4579182015b82811115612da3578251825591602001919060010190612d88565b5b509050612db19190612e91565b5090565b6040518060c0016040528060608152602001606081526020016000151581526020016000815260200160008152602001600073ffffffffffffffffffffffffffffffffffffffff1681525090565b6040518060c0016040528060608152602001600073ffffffffffffffffffffffffffffffffffffffff1681526020016000815260200160008152602001600015158152602001606081525090565b508054612e5d906138af565b6000825580601f10612e6f5750612e8e565b601f016020900490600052602060002090810190612e8d9190612e91565b5b50565b5b80821115612eaa576000816000905550600101612e92565b5090565b6000604051905090565b600080fd5b600080fd5b600080fd5b600080fd5b6000601f19601f8301169050919050565b7f4e487b7100000000000000000000000000000000000000000000000000000000600052604160045260246000fd5b612f1582612ecc565b810181811067ffffffffffffffff82111715612f3457612f33612edd565b5b80604052505050565b6000612f47612eae565b9050612f538282612f0c565b919050565b600067ffffffffffffffff821115612f7357612f72612edd565b5b612f7c82612ecc565b9050602081019050919050565b82818337600083830152505050565b6000612fab612fa684612f58565b612f3d565b905082815260208101848484011115612fc757612fc6612ec7565b5b612fd2848285612f89565b509392505050565b600082601f830112612fef57612fee612ec2565b5b8135612fff848260208601612f98565b91505092915050565b600073ffffffffffffffffffffffffffffffffffffffff82169050919050565b600061303382613008565b9050919050565b61304381613028565b811461304e57600080fd5b50565b6000813590506130608161303a565b92915050565b60008060006060848603121561307f5761307e612eb8565b5b600084013567ffffffffffffffff81111561309d5761309c612ebd565b5b6130a986828701612fda565b93505060206130ba86828701613051565b925050604084013567ffffffffffffffff8111156130db576130da612ebd565b5b6130e786828701612fda565b9150509250925092565b60006020828403121561310757613106612eb8565b5b600082013567ffffffffffffffff81111561312557613124612ebd565b5b61313184828501612fda565b91505092915050565b600081519050919050565b600082825260208201905092915050565b60005b83811015613174578082015181840152602081019050613159565b83811115613183576000848401525b50505050565b60006131948261313a565b61319e8185613145565b93506131ae818560208601613156565b6131b781612ecc565b840191505092915050565b60008115159050919050565b6131d7816131c2565b82525050565b6000819050919050565b6131f0816131dd565b82525050565b6131ff81613028565b82525050565b600060c08301600083015184820360008601526132228282613189565b9150506020830151848203602086015261323c8282613189565b915050604083015161325160408601826131ce565b50606083015161326460608601826131e7565b50608083015161327760808601826131e7565b5060a083015161328a60a08601826131f6565b508091505092915050565b600060208201905081810360008301526132af8184613205565b905092915050565b6132c0816131c2565b81146132cb57600080fd5b50565b6000813590506132dd816132b7565b92915050565b600080604083850312156132fa576132f9612eb8565b5b600061330885828601613051565b9250506020613319858286016132ce565b9150509250929050565b60006020828403121561333957613338612eb8565b5b600061334784828501613051565b91505092915050565b600060c083016000830151848203600086015261336d8282613189565b915050602083015161338260208601826131f6565b50604083015161339560408601826131e7565b5060608301516133a860608601826131e7565b5060808301516133bb60808601826131ce565b5060a083015184820360a08601526133d38282613189565b9150508091505092915050565b600060208201905081810360008301526133fa8184613350565b905092915050565b6000806040838503121561341957613418612eb8565b5b600083013567ffffffffffffffff81111561343757613436612ebd565b5b61344385828601612fda565b925050602083013567ffffffffffffffff81111561346457613463612ebd565b5b61347085828601612fda565b9150509250929050565b613483816131dd565b82525050565b600060208201905061349e600083018461347a565b92915050565b600082825260208201905092915050565b7f596f75206d75737420686176652061646d696e2070726976696c65646765732060008201527f746f2072756e2074686973000000000000000000000000000000000000000000602082015250565b6000613511602b836134a4565b915061351c826134b5565b604082019050919050565b6000602082019050818103600083015261354081613504565b9050919050565b7f42616e6b7320697320616c726561647920616464656420696e20746865206c6960008201527f7374000000000000000000000000000000000000000000000000000000000000602082015250565b60006135a36022836134a4565b91506135ae82613547565b604082019050919050565b600060208201905081810360008301526135d281613596565b9050919050565b7f5468697320726567697374726174696f6e206e756d62657220697320616c726560008201527f6164792074616b656e0000000000000000000000000000000000000000000000602082015250565b60006136356029836134a4565b9150613640826135d9565b604082019050919050565b6000602082019050818103600083015261366481613628565b9050919050565b7f546869732062616e6b20616c7265616479206578697374206f6e20746865206260008201527f6c6f636b636861696e0000000000000000000000000000000000000000000000602082015250565b60006136c76029836134a4565b91506136d28261366b565b604082019050919050565b600060208201905081810360008301526136f6816136ba565b9050919050565b7f4e487b7100000000000000000000000000000000000000000000000000000000600052601160045260246000fd5b6000613737826131dd565b91507fffffffffffffffffffffffffffffffffffffffffffffffffffffffffffffffff82141561376a576137696136fd565b5b600182019050919050565b7f796f7520617265206e6f74207374696c6c20617070726f76656420627920746860008201527f652061646d696e6973747261746f722e2e20706c6561736520636f6e7461637460208201527f2061646d696e0000000000000000000000000000000000000000000000000000604082015250565b60006137f76046836134a4565b915061380282613775565b606082019050919050565b60006020820190508181036000830152613826816137ea565b9050919050565b600081905092915050565b60006138438261313a565b61384d818561382d565b935061385d818560208601613156565b80840191505092915050565b60006138758284613838565b915081905092915050565b7f4e487b7100000000000000000000000000000000000000000000000000000000600052602260045260246000fd5b600060028204905060018216806138c757607f821691505b602082108114156138db576138da613880565b5b50919050565b7f546869732062616e6b206164647265737320646f65736e277420657869737400600082015250565b6000613917601f836134a4565b9150613922826138e1565b602082019050919050565b600060208201905081810360008301526139468161390a565b9050919050565b7f596f757220726967687420746f20766f746520686173206265656e207265766f60008201527f6b65642e20506c6561736520636f6e746163742061646d696e2e000000000000602082015250565b60006139a9603a836134a4565b91506139b48261394d565b604082019050919050565b600060208201905081810360008301526139d88161399c565b9050919050565b60008190508160005260206000209050919050565b60008154613a01816138af565b613a0b818661382d565b94506001821660008114613a265760018114613a3757613a6a565b60ff19831686528186019350613a6a565b613a40856139df565b60005b83811015613a6257815481890152600182019150602081019050613a43565b838801955050505b50505092915050565b6000613a7f82846139f4565b915081905092915050565b7f74686973206163636f756e7420646f6573746e20657869737420706c6561736560008201527f20637265617465206f6e65210000000000000000000000000000000000000000602082015250565b6000613ae6602c836134a4565b9150613af182613a8a565b604082019050919050565b60006020820190508181036000830152613b1581613ad9565b9050919050565b7f746869732075736572206861736e7420637265617465642061204b594320726560008201527f7175657374207965742100000000000000000000000000000000000000000000602082015250565b6000613b78602a836134a4565b9150613b8382613b1c565b604082019050919050565b60006020820190508181036000830152613ba781613b6b565b9050919050565b7f596f7520686176656e7420766f7465642079657420746f2072656d6f7665206960008201527f7400000000000000000000000000000000000000000000000000000000000000602082015250565b6000613c0a6021836134a4565b9150613c1582613bae565b604082019050919050565b60006020820190508181036000830152613c3981613bfd565b9050919050565b6000613c4b826131dd565b91506000821415613c5f57613c5e6136fd565b5b600182039050919050565b7f5468697320616464726573732065786973742120736f20747279206d6f64696660008201527f79696e6720697400000000000000000000000000000000000000000000000000602082015250565b6000613cc66027836134a4565b9150613cd182613c6a565b604082019050919050565b60006020820190508181036000830152613cf581613cb9565b9050919050565b7f5468652072657175657374206973206e6f7420666f756e642120706c6561736560008201527f2061646420746865207265717565737400000000000000000000000000000000602082015250565b6000613d586030836134a4565b9150613d6382613cfc565b604082019050919050565b60006020820190508181036000830152613d8781613d4b565b9050919050565b7f74686973206163636f756e7220646f6573746e20657869737400000000000000600082015250565b6000613dc46019836134a4565b9150613dcf82613d8e565b602082019050919050565b60006020820190508181036000830152613df381613db7565b9050919050565b7f41646472657373206973206e6f7420636f727265637421000000000000000000600082015250565b6000613e306017836134a4565b9150613e3b82613dfa565b602082019050919050565b60006020820190508181036000830152613e5f81613e23565b9050919050565b7f5265717565737420616c726561647920657869737420696e207468652062616e60008201527f6b73204b59432100000000000000000000000000000000000000000000000000602082015250565b6000613ec26027836134a4565b9150613ecd82613e66565b604082019050919050565b60006020820190508181036000830152613ef181613eb5565b9050919050565b7f416464726573206973206e6f7420636f72726563742100000000000000000000600082015250565b6000613f2e6016836134a4565b9150613f3982613ef8565b602082019050919050565b60006020820190508181036000830152613f5d81613f21565b9050919050565b6000613f6f826131dd565b9150613f7a836131dd565b9250817fffffffffffffffffffffffffffffffffffffffffffffffffffffffffffffffff0483118215151615613fb357613fb26136fd565b5b828202905092915050565b7f596f75206861766520616c726561647920646f776e20766f7465642021210000600082015250565b6000613ff4601e836134a4565b9150613fff82613fbe565b602082019050919050565b6000602082019050818103600083015261402381613fe7565b9050919050565b7f596f75206861766520616c726561647920757020766f746564202c20736f207960008201527f6f752063616e7420646f776e20766f74652e20706c656173652072656d6f766560208201527f2069740000000000000000000000000000000000000000000000000000000000604082015250565b60006140ac6043836134a4565b91506140b78261402a565b606082019050919050565b600060208201905081810360008301526140db8161409f565b9050919050565b7f596f75206861766520616c7265616479207570766f74656420766f746564202160008201527f2100000000000000000000000000000000000000000000000000000000000000602082015250565b600061413e6021836134a4565b9150614149826140e2565b604082019050919050565b6000602082019050818103600083015261416d81614131565b9050919050565b7f596f75206861766520616c726561647920646f776e766f746564202c20736f2060008201527f796f752063616e742075706c6f61642e20706c656173652072656d6f7665206960208201527f7400000000000000000000000000000000000000000000000000000000000000604082015250565b60006141f66041836134a4565b915061420182614174565b606082019050919050565b60006020820190508181036000830152614225816141e9565b9050919050565b7f74686973206163636f756e7220646f6573746e20657869737420706c6561736560008201527f20637265617465206f6e65210000000000000000000000000000000000000000602082015250565b6000614288602c836134a4565b91506142938261422c565b604082019050919050565b600060208201905081810360008301526142b78161427b565b905091905056fea26469706673582212202550f13c06e7ec790d5fc716e6e1c8aa8f8a8e5e053486db4ce0989d11be4e0164736f6c634300080a0033",
  "linkReferences": {},
  "deployedLinkReferences": {}
}